:020000040800F2
:100000000080002045470008E1170008E3170008BA
:10001000E5170008E7170008E917000800000000CE
:10002000000000000000000000000000EB170008C6
:10003000ED17000800000000EF170008F117000896
:100040009547000895470008954700089547000820
:100050009547000895470008954700089547000810
:10006000954700089547000895470008F9170008CC
:10007000091800081918000829180008391800087C
:10008000491800080000000095470008954700083F
:10009000954700085918000895470008954700083B
:1000A00095470008954700089547000895470008C0
:1000B000954700089547000869180008954700080B
:1000C00095470008954700089547000895470008A0
:1000D0009547000895470008954700089547000890
:1000E0009547000895470008954700089547000880
:1000F0009547000895470008954700080000000054
:100100000000000095470008000000009547000827
:100110009547000800000000954700089547000833
:10012000954700089547000895470008954700083F
:1001300095470008000000000000000095470008F7
:1001400095470008954700080000000000000000E7
:10015000000000000000000000000000000000009F
:1001600000000000000000000000000095470008AB
:10017000954700080000000000000000000000009B
:10018000000000009547000800000000000000008B
:10019000000000000000000000000000000000005F
:1001A0000000000000000000954700089547000887
:1001B0009547000895470008954700080000000093
:1001C000000000009547000800000000000000004B
:0801D00095470008954700085F
:1001E00053B94AB9002908BF00281CBF4FF0FF319E
:1001F0004FF0FF3000F0E2B8ADF1080C6DE904CE2D
:1002000004F0CAFADDF804E0DDE9022304B0704727
:1002100000F1340191E838009C46A6464CF8045D94
:1002200090E8FF0FE54600BD90EC210B704700BF42
:1002300080EC210B704700BF90EC200B704700BF93
:1002400080EC200B704700BFD0EC200B704700BF44
:10025000C0EC200B704700BFF0EC0201F0EC021183
:10026000F0EC0221F0EC0231F0EC0241F0EC025132
:10027000F0EC0261F0EC0271F0EC0281F0EC029122
:10028000F0EC02A1F0EC02B1F0EC02C1F0EC02D112
:10029000F0EC02E1F0EC02F1704700BFE0EC02018B
:1002A000E0EC0211E0EC0221E0EC0231E0EC024172
:1002B000E0EC0251E0EC0261E0EC0271E0EC028162
:1002C000E0EC0291E0EC02A1E0EC02B1E0EC02C152
:1002D000E0EC02D1E0EC02E1E0EC02F1704700BF9B
:1002E000B0FC0181B0FC0191B0FC01A1B0FC01B1F6
:1002F000704700BFA0FC0181A0FC0191A0FC01A1FE
:10030000A0FC01B1704700BFEC4600B52DE90050DC
:100310002DE9FF1F4FF000032DE90C0001A904F0A7
:10032000EDFCDDF840E012B0704700BFEC4600B5D0
:100330002DE900502DE9FF1F4FF000032DE90C00BF
:1003400001A904F017FDDDF840E012B0704700BFCE
:10035000EC4600B52DE900502DE9FF1F4FF00003DA
:100360002DE90C0001A904F025FDDDF840E012B0F4
:10037000704700BFEC4600B52DE900502DE9FF1F86
:100380004FF000032DE90C0001AB04F0EBFCDDF8AD
:1003900040E012B0704700BFEC4600B52DE90050B8
:1003A0002DE9FF1F4FF000032DE90C0001AA04F016
:1003B00055FDDDF840E012B0704700BF704700BF48
:1003C00001F0FF01102A2BDB10F0070F08D010F806
:1003D000013B013A8B422DD010F0070F42B3F6D10A
:1003E000F0B441EA012141EA014122F007047FF023
:1003F00000070023F0E80256083C85EA010586EA7A
:10040000010685FA47F5A3FA87F586FA47F6A5FAB5
:1004100087F68EB9EED1F0BC01F0FF0102F00702C1
:1004200032B110F8013B013A83EA010313B1F8D16C
:100430000020704701387047002D06BF354603384D
:10044000073815F0010F07D1013015F4807F02BF86
:10045000013015F4C03F0130F0BC0138704700BFD7
:10046000034613F8012B002AFBD1181A01387047F4
:1004700081F0004102E000BF83F0004330B54FEA55
:1004800041044FEA430594EA050F08BF90EA020FC2
:100490001FBF54EA000C55EA020C7FEA645C7FEA55
:1004A000655C00F0E2804FEA5454D4EB5555B8BF78
:1004B0006D420CDD2C4480EA020281EA030382EAE9
:1004C000000083EA010180EA020281EA0303362D7B
:1004D00088BF30BD11F0004F4FEA01314FF4801C4E
:1004E0004CEA113102D0404261EB410113F0004F60
:1004F0004FEA03334CEA133302D0524263EB430317
:1005000094EA050F00F0A780A4F10104D5F1200EB4
:100510000DDB02FA0EFC22FA05F2801841F100010F
:1005200003FA0EF2801843FA05F359410EE0A5F1E3
:1005300020050EF1200E012A03FA0EFC28BF4CF014
:10054000020C43FA05F3C01851EBE37101F00045CA
:1005500007D54FF0000EDCF1000C7EEB00006EEBD7
:100560000101B1F5801F1BD3B1F5001F0CD3490861
:100570005FEA30004FEA3C0C04F101044FEA4452B8
:1005800012F5800F80F09A80BCF1004F08BF5FEA3F
:10059000500C50F1000041EB045141EA050130BD1F
:1005A0005FEA4C0C404141EB0101013C28BFB1F531
:1005B000801FE9D291F0000F04BF01460020B1FA7C
:1005C00081F308BF2033A3F10B03B3F120020CDA4F
:1005D0000C3208DD02F1140CC2F10C0201FA0CF02D
:1005E00021FA02F10CE002F11402D8BFC2F1200C92
:1005F00001FA02F120FA0CFCDCBF41EA0C01904048
:10060000E41AA2BF01EB0451294330BD6FEA040490
:100610001F3C1CDA0C340EDC04F11404C4F120027B
:1006200020FA04F001FA02F340EA030021FA04F38D
:1006300045EA030130BDC4F10C04C4F1200220FAE4
:1006400002F001FA04F340EA0300294630BD21FA22
:1006500004F0294630BD94F0000F83F4801306BFE8
:1006600081F480110134013D4EE77FEA645C18BFDC
:100670007FEA655C29D094EA050F08BF90EA020F73
:1006800005D054EA000C04BF1946104630BD91EA6B
:10069000030F1EBF0021002030BD5FEA545C05D16E
:1006A0004000494128BF41F0004130BD14F58004AD
:1006B0003CBF01F5801130BD01F0004545F0FE4121
:1006C00041F470014FF0000030BD7FEA645C1ABF56
:1006D000194610467FEA655C1CBF0B46024650EA8D
:1006E000013406BF52EA033591EA030F41F40021B9
:1006F00030BD00BF90F0000F04BF0021704730B53F
:100700004FF4806404F132044FF000054FF0000113
:1007100050E700BF90F0000F04BF0021704730B5D4
:100720004FF4806404F1320410F0004548BF4042A9
:100730004FF000013EE700BF42004FEAE2014FEAFE
:1007400031014FEA02701FBF12F07F4393F07F4FD9
:1007500081F06051704732F07F4208BF704793F0DC
:100760007F4F04BF41F40021704730B54FF46074EF
:1007700001F0004521F000411CE700BF50EA0102F2
:1007800008BF704730B54FF000050AE050EA01029B
:1007900008BF704730B511F0004502D5404261EB0B
:1007A00041014FF4806404F132045FEA915C3FF44C
:1007B000D8AE4FF003025FEADC0C18BF03325FEAE9
:1007C000DC0C18BF033202EBDC02C2F1200300FA9A
:1007D00003FC20FA02F001FA03FE40EA0E0021FABF
:1007E00002F11444BDE600BF70B54FF0FF0C4CF4AD
:1007F000E06C1CEA11541DBF1CEA135594EA0C0F5F
:1008000095EA0C0F00F0DEF82C4481EA030621EA99
:100810004C5123EA4C5350EA013518BF52EA0335D4
:1008200041F4801143F4801338D0A0FB02CE4FF086
:100830000005E1FB02E506F00042E0FB03E54FF0B6
:100840000006E1FB03569CF0000F18BF4EF0010EAE
:10085000A4F1FF04B6F5007F64F5407404D25FEAAA
:100860004E0E6D4146EB060642EAC62141EA55515D
:100870004FEAC52040EA5E504FEACE2EB4F1FD0C9F
:1008800088BFBCF5E06F1ED8BEF1004F08BF5FEA1D
:10089000500E50F1000041EB045170BD06F00046CF
:1008A00046EA010140EA020081EA0301B4EB5C047C
:1008B000C2BFD4EB0C0541EA045170BD41F4801174
:1008C0004FF0000E013C00F3AB8014F1360FDEBF99
:1008D000002001F0004170BDC4F10004203C35DA75
:1008E0000C341BDC04F11404C4F1200500FA05F3F8
:1008F00020FA04F001FA05F240EA020001F0004299
:1009000021F0004110EBD37021FA04F642EB06010E
:100910005EEA430E08BF20EAD37070BDC4F10C0438
:10092000C4F1200500FA04F320FA05F001FA04F2FC
:1009300040EA020001F0004110EBD37041F10001E8
:100940005EEA430E08BF20EAD37070BDC4F12005F3
:1009500000FA05F24EEA020E20FA04F301FA05F25B
:1009600043EA020321FA04F001F0004121FA04F203
:1009700020EA020000EBD3705EEA430E08BF20EAD3
:10098000D37070BD94F0000F0FD101F0004640000D
:1009900041EB010111F4801F08BF013CF7D041EA8F
:1009A000060195F0000F18BF704703F00046520093
:1009B00043EB030313F4801F08BF013DF7D043EA64
:1009C0000603704794EA0C0F0CEA135518BF95EA1A
:1009D0000C0F0CD050EA410618BF52EA4306D1D1A1
:1009E00081EA030101F000414FF0000070BD50EAC0
:1009F000410606BF1046194652EA430619D094EA4A
:100A00000C0F02D150EA013613D195EA0C0F05D133
:100A100052EA03361CBF104619460AD181EA030187
:100A200001F0004141F0FE4141F470014FF000003F
:100A300070BD41F0FE4141F4780170BD70B54FF0DA
:100A4000FF0C4CF4E06C1CEA11541DBF1CEA13555A
:100A500094EA0C0F95EA0C0F00F0A7F8A4EB05043C
:100A600081EA030E52EA03354FEA013100F0888033
:100A70004FEA03334FF0805545EA131343EA1263FC
:100A80004FEA022245EA111545EA10654FEA0026B1
:100A90000EF000419D4208BF964244F1FD0404F56A
:100AA000407402D25B084FEA3202B61A65EB0305C6
:100AB0005B084FEA32024FF480104FF4002CB6EB83
:100AC000020E75EB030E22BFB61A754640EA0C0003
:100AD0005B084FEA3202B6EB020E75EB030E22BF43
:100AE000B61A754640EA5C005B084FEA3202B6EB84
:100AF000020E75EB030E22BFB61A754640EA9C0043
:100B00005B084FEA3202B6EB020E75EB030E22BF12
:100B1000B61A754640EADC0055EA060E18D04FEAD0
:100B2000051545EA16754FEA06164FEAC30343EA70
:100B300052734FEAC2025FEA1C1CC0D111F4801F3D
:100B40000BD141EA00014FF000004FF0004CB6E736
:100B500011F4801F04BF01430020B4F1FD0C88BFD5
:100B6000BCF5E06F3FF6AFAEB5EB030C04BFB6EBE0
:100B7000020C5FEA500C50F1000041EB045170BDD3
:100B80000EF0004E4EEA113114EB5C04C2BFD4EB00
:100B90000C0541EA045170BD41F480114FF0000E84
:100BA000013C90E645EA060E8DE60CEA135594EA00
:100BB0000C0F08BF95EA0C0F3FF43BAF94EA0C0F03
:100BC0000AD150EA01347FF434AF95EA0C0F7FF478
:100BD00025AF104619462CE795EA0C0F06D152EACC
:100BE00003353FF4FDAE1046194622E750EA4106B0
:100BF00018BF52EA43067FF4C5AE50EA41047FF4C1
:100C00000DAF52EA43057FF4EBAE12E74FF0FF3C25
:100C100006E000BF4FF0010C02E000BF4FF0010CF6
:100C20004DF804CD4FEA410C7FEA6C5C4FEA430C6F
:100C300018BF7FEA6C5C1BD001B050EA410C0CBFBE
:100C400052EA430C91EA030F02BF90EA020F002020
:100C5000704710F1000F91EA030F58BF994208BF87
:100C600090422CBFD8176FEAE37040F00100704744
:100C70004FEA410C7FEA6C5C02D150EA013C07D19B
:100C80004FEA430C7FEA6C5CD6D152EA033CD3D0E6
:100C90005DF8040B704700BF8446104662468C46E0
:100CA0001946634600E000BF01B5FFF7B7FF002813
:100CB00048BF10F1000F01BD4DF808EDFFF7F4FF3C
:100CC0000CBF012000205DF808FB00BF4DF808EDC7
:100CD000FFF7EAFF34BF012000205DF808FB00BFEA
:100CE0004DF808EDFFF7E0FF94BF012000205DF80C
:100CF00008FB00BF4DF808EDFFF7CEFF94BF0120C1
:100D000000205DF808FB00BF4DF808EDFFF7C4FFB9
:100D100034BF012000205DF808FB00BF4FEA410C02
:100D20007FEA6C5C02D150EA013C0AD14FEA430CE5
:100D30007FEA6C5C02D152EA033C02D14FF0000022
:100D400070474FF0010070474FEA410212F5001260
:100D500015D211D56FF47873B3EB625212D94FEA02
:100D6000C12343F0004343EA505311F0004F23FAEC
:100D700002F018BF404270474FF00000704750EA41
:100D8000013005D111F0004008BF6FF000407047FE
:100D90004FF00000704700BF0348044B834202D06D
:100DA000034B03B118477047E0010020E001002029
:100DB000000000000548064B1B1AD90F01EBA301E8
:100DC000491002D0034B03B118477047E0010020DF
:100DD000E00100200000000010B5064C237843B964
:100DE000FFF7DAFF044B13B10448AFF3008001238F
:100DF000237010BDE00100200000000054860008B0
:100E000008B5054B1BB105490548AFF30080BDE8A7
:100E10000840FFF7CFBF00BF00000000E401002042
:100E200054860008F0B589B0002403940494059416
:100E300006940794324BDA6C42F00402DA64DA6CFE
:100E400002F004020092009ADA6C42F00102DA64C5
:100E5000DA6C02F001020192019ADA6C42F00202AD
:100E6000DA64DB6C03F002030293029B254F2246F7
:100E700042F21001384601F0A1FE224640F23E4106
:100E80004FF0904001F09AFE1F4D224641F64F016F
:100E9000284601F093FE42F21003039301260496C4
:100EA0000594069403A9384601F09EFD4FF4404393
:100EB00003930494059403A9384601F095FD40F28C
:100EC0003E43039304960594069403A94FF0904083
:100ED00001F08AFD41F64F030393049605940694AE
:100EE00003A9284601F080FD4FF40873039304948E
:100EF000059403A9284601F077FD09B0F0BD00BFB5
:100F000000100240000800480004004800B583B00B
:100F1000224B9A6C42F004029A649A6C02F004022A
:100F20000092009A9A6C42F001029A649B6C03F062
:100F300001030193019B002211460B2002F034F8BB
:100F40000B2002F041F8002211460C2002F02CF890
:100F50000C2002F039F8002211460D2002F024F88E
:100F60000D2002F031F8002211460E2002F01CF88C
:100F70000E2002F029F8002211460F2002F014F88A
:100F80000F2002F021F800221146102002F00CF888
:100F9000102002F019F803B05DF804FB00100240C5
:100FA00008B51048104B0360002343608360C360A2
:100FB0000374437483740322426101228261072116
:100FC000C1610221016242628262C26202634363C2
:100FD0008363C36300F0A0FC00B908BD03F0BAFA54
:100FE000FBE700BFFC0100200064004010B598B092
:100FF00004460021139114911591169117914422E2
:1010000002A805F076FB22681E4B9A4201D018B068
:1010100010BD4FF4805302934FF080730E9302A8DB
:1010200001F070FB50BB184B9A6D42F000729A654C
:101030009A6D02F000720092009ADA6C42F001029E
:10104000DA64DB6C03F001030193019B4FF4C0539E
:1010500013930223149300241594169409231793D1
:1010600013A94FF0904001F0BFFC22462146152005
:1010700001F09AFF152001F0A7FFC8E703F06AFA14
:10108000D1E700BF006400400010024008B51548D9
:10109000154B0360A3F17863A3F57D23A3F64F639B
:1010A0004360002383600122C26003614361836166
:1010B000C361036201F0A0FF50B90021094801F0AB
:1010C000F9FF40B90021074802F022F830B908BD05
:1010D00003F040FAF1E703F03DFAF3E703F03AFAE0
:1010E000F5E700BF20030020005400402DE9F04345
:1010F0009BB00446002115911691179118911991F2
:10110000442204A805F0F5FA22683E4B9A4202D028
:101110001BB0BDE8F0834023049304A801F0F2FA69
:10112000002866D1384EF36C43F00103F364F36C8E
:1011300003F001030193019BF36C43F00203F3649A
:10114000F36C03F002030293029B4FF400431593E8
:101150004FF01209CDF858900025179518954FF0CB
:101160000408CDF8648015A94FF0904001F03CFCD4
:1011700080271597CDF8589017951895CDF864806D
:1011800015A9224801F030FCB36D43F40013B36598
:10119000B36D03F400130393039B1D481D4B0360C1
:1011A000102343608560C560076145618561C56145
:1011B0004FF40053036201F047FDE8B9144BE363B9
:1011C0009C621548154B0360112343601023836014
:1011D0000023C3608022026143618361C3614FF4D5
:1011E0000053036201F030FD48B90B4BA3639C62CE
:1011F0008EE703F0AFF995E703F0ACF9DEE703F013
:10120000A9F9F2E700540040001002400004004831
:10121000C002002008000240600200201C000240C2
:1012200008B51048104B03604FF4827343600023ED
:1012300083604FF44072C260036143614FF40072F7
:101240008261C3610362436283620722C2620363F5
:101250000823436301F088FF00B908BD03F07AF961
:10126000FBE700BF2C0400200038004010B588B018
:1012700000230393049305930693079302682A4B74
:101280009A4201D008B010BD044603F5EC339A6DC4
:1012900042F480429A659A6D02F480420192019A6A
:1012A000DA6C42F00202DA64DB6C03F002030293B0
:1012B000029B4FF460430393022304930523079397
:1012C00003A91A4801F090FB19481A4B03600C233C
:1012D000436000238360C3608022026143618361B5
:1012E000C361036201F0B0FCC0B9114BA3659C62FD
:1012F0001148124B03600D234360102383600023C9
:10130000C3608022026143618361C361036201F0B3
:101310009BFC30B9084B63659C62B3E703F01AF994
:10132000E3E703F017F9F5E7003800400004004850
:10133000CC030020580002406C0300206C000240E7
:1013400000B58DB02422002103A805F0D2F90023B6
:101350000093019302931248124A02604360836033
:101360004FF6FF72C26003614361836101230393FF
:101370000593099303A902F0B1FA58B90023009329
:10138000019302936946064802F08CFC28B90DB01F
:101390005DF804FB03F0DEF8F0E703F0DBF8F6E7B6
:1013A00074050020002C014000B58DB024220021DE
:1013B00003A805F09EF900230093019302931148BE
:1013C000114A0260436083604FF6FF72C26003619E
:1013D0008361012303930593099303A902F07EFA25
:1013E00050B90023009302936946064802F05AFC64
:1013F00028B90DB05DF804FB03F0ACF8F1E703F099
:10140000A9F8F6E7DC0400200004004000B589B02C
:101410000023049305930693079301930293039388
:101420001448154A02601F224260836049F27B2201
:10143000C2600361836102F0F1F990B94FF4805307
:10144000049304A90B4802F091FB68B900230193AF
:10145000039301A9074802F025FC40B909B05DF8E3
:1014600004FB03F077F8E9E703F074F8EEE703F024
:1014700071F8F3E7900400200008004000B58BB03D
:101480000023059306930793089309930368234A5F
:10149000934205D0224A934222D00BB05DF804FB60
:1014A000204B1A6E42F400621A661A6E02F4006251
:1014B0000192019ADA6C42F00102DA64DB6C03F00B
:1014C00001030293029B4FF440730593022306939A
:1014D0000623099305A94FF0904001F085FADCE757
:1014E000104B9A6D42F002029A659A6D02F0020268
:1014F0000392039ADA6C42F00102DA64DB6C03F0C7
:1015000001030493049BC0230593022306930993CC
:1015100005A94FF0904001F067FABEE7002C0140AA
:10152000000400400010024000B583B00368B3F12E
:10153000804F05D0124A93420ED003B05DF804FBF1
:1015400003F504339A6D42F001029A659B6D03F036
:1015500001030093009BF0E70A4B9A6D42F00402EE
:101560009A659B6D03F004030193019B00221146D1
:101570001E2001F019FD1E2001F026FDDDE700BF51
:10158000000800400010024000B587B0002301931E
:1015900002930393049305930368B3F1804F02D041
:1015A00007B05DF804FB03F50433DA6C42F0010286
:1015B000DA64DB6C03F001030093009B01230193C9
:1015C00002220292059301A94FF0904001F00CFA1B
:1015D000E6E7000000B58FB000230A930B930C934D
:1015E0000D93079308930993009301930293039338
:1015F00004930593069321484FF0804202604360B4
:10160000836040F69F72C2600361836102F006F955
:1016100020BB4FF480530A930AA9184802F0A6FA97
:10162000F8B9164802F02AF9F0B900230793099394
:1016300007A9124802F036FBC8B9602300930022C4
:1016400001920292049269460C4802F0E5F988B9C9
:101650000A48FFF799FF0FB05DF804FB02F07AFF2C
:10166000D7E702F077FFDCE702F074FFDDE702F076
:1016700071FFE2E702F06EFFEAE700BF28050020F5
:1016800008B51748174B03604FF4E133436000235C
:101690008360C36003610C2242618361C3610362A2
:1016A0004362836202F06CFE70B900210C4802F0C4
:1016B000E0FE60B900210A4802F000FF50B9084876
:1016C00002F0B8FE48B908BD02F044FFEDE702F0B1
:1016D00041FFEFE702F03EFFF1E702F03BFFF2E7E8
:1016E000800600200048004030B599B00446002133
:1016F00013911491159116911791442202A804F0A8
:10170000F8FF22682F4B9A4201D019B030BD042354
:10171000029302A800F0F6FF002849D12A4B9A6DE7
:1017200042F480229A659A6D02F480220092009A17
:10173000DA6C42F00402DA64DB6C03F00403019318
:10174000019B4FF4406313930223149300251595D6
:1017500016950723179313A91C4801F045F91C4857
:101760001C4B03601C2343608560C56080230361BC
:1017700045618561C561056201F066FAD8B9144B0F
:10178000E3679C621448154B03601D2343601023DC
:1017900083600023C3608022026143618361C3616F
:1017A000036201F051FA48B90B4BA3679C62ACE7A6
:1017B00002F0D0FEB2E702F0CDFEE0E702F0CAFE92
:1017C000F2E700BF00480040001002400008004857
:1017D0002006002030000240C005002044000240E6
:1017E000FEE7FEE7FEE7FEE7FEE77047704770475B
:1017F00008B500F057FB08BD08B5024801F090FAA3
:1018000008BD00BFC002002008B5024801F088FAF8
:1018100008BD00BF6002002008B5024801F080FA50
:1018200008BD00BF2006002008B5024801F078FA84
:1018300008BD00BFC005002008B5024801F070FADD
:1018400008BD00BFCC03002008B5024801F068FACB
:1018500008BD00BF6C03002008B5024800F01DFA67
:1018600008BD00BFFC01002008B5024801F06BFE76
:1018700008BD00BF9004002000B583B00B4B1A6E6A
:1018800042F001021A661A6E02F001020092009AFA
:101890009A6D42F080529A659B6D03F080530193DC
:1018A000019B01F025FB03B05DF804FB0010024032
:1018B00010B4154B03640168D1F8802022F4F812AB
:1018C000446B42EA0442C1F88020104A4264016835
:1018D000D1F8802022F07062846B42EA0462C1F881
:1018E00080200B4A8264D832C264D8320265183232
:1018F000426502E0002243F8042B064A9342F9D9DC
:101900005DF8044B704700BF00A4004070A4004085
:10191000B0A400404FA70040002800F0E38038B595
:10192000044690F85C30D3B12268936923F0100329
:10193000936100F0C3FA054623689A6912F0080F14
:1019400012D000F0BBFA401B0A28F5D9236E43F0F1
:1019500001032366032384F85C30012038BD80F83E
:101960005D30FFF743FBDFE79A6942F001029A61BD
:1019700000F0A4FA054623689A6912F0010F0DD110
:1019800000F09CFA401B0A28F5D9236E43F00103AE
:101990002366032384F85C300120DFE79A6942F074
:1019A00002029A612268504B9A4242D0237C012B5A
:1019B00045D02268936943F040039361637C012B17
:1019C00043D02268936923F480439361A37C012B65
:1019D00041D02268936943F48053936122689369EC
:1019E00023F44073A1680B4393612268936923F049
:1019F000A40393612268136923F010031361E36861
:101A0000012B2ED0002B31D0022B54D022689369A9
:101A100043F0800393612268136943F0100313615C
:101A2000E368032B22D12268936943F0200393617A
:101A30001CE06268A3F58063C3F80025B6E722685E
:101A4000936923F040039361B8E72268936943F4F4
:101A500080439361BAE72268936923F480539361CA
:101A6000BCE72268936943F004039361A3695A1E9B
:101A7000E369013B1B0243EA4263226A013A1343D2
:101A80006269013A216843EA0243CB61A368B3F576
:101A9000407F16D02268D2F8C030E16B0B43C2F809
:101AA000C0302046FFF704FF0020A0652066012318
:101AB00084F85C3052E72268936943F02003936115
:101AC000D4E7A36A013BE26A013A43EA0223226BAC
:101AD000013A43EA0213626A013A216843EA024387
:101AE000CB60D7E7012070470064004090F85C307D
:101AF000013BDBB2012B05D9036E43F00203036601
:101B0000012070470B68A3B110B4CA680B6943EA9F
:101B100042724B698C6843EA8473406C496800EBFD
:101B2000C10C40F83120CCF8043000205DF8044BA3
:101B300070478A68CB68DB0643EA82730A6943EA26
:101B400002434A691343026C496842F8213000207D
:101B5000704790F85C30DBB2012B05D0036E43F088
:101B60000403036601207047022380F85C3002689A
:101B7000936923F0010393610023036618467047BD
:101B800090F85C30013BDBB2012B05D9036E43F0CA
:101B9000020303660120704770B40468A36D11F05E
:101BA000070602D013F0010F23D011F0380F02D036
:101BB00013F0020F1DD011F4E07F02D013F0040FD8
:101BC00017D011F4F05F02D013F0080F11D011F408
:101BD000604F02D013F0100F0BD011F4403F02D031
:101BE00013F0200F05D011F47C0F06D013F0400F36
:101BF00003D1E56D45F00105E56516B113F0010F60
:101C000023D111F0380F02D013F0020F1DD111F4BF
:101C1000E07F02D013F0040F17D111F4F05F02D06F
:101C200013F0080F11D111F4604F02D013F0100F10
:101C30000BD111F4403F02D013F0200F05D111F465
:101C40007C0F07D013F0400F04D00468E36D43F01D
:101C50000203E36511F0800F05D00468D4F8DC308E
:101C60001343C4F8DC3011F4807F05D00468D4F845
:101C7000E0301343C4F8E0300268536D0B43536502
:101C8000002070BC704770477047704770477047BE
:101C9000704770477047704770472DE9F843044616
:101CA00003681A6D02F4E0595A6D09EA02091A6DC7
:101CB00002F007085A6D08EA02081F6D07F038079E
:101CC0005A6D17401D6D05F471055A6D15401E6D56
:101CD00006F460265A6D16401A6D12F0400F03D0BC
:101CE0005A6D12F0400F51D123681A6D12F4807FA3
:101CF00003D05A6D12F4807F4DD1B9F1000F56D147
:101D0000B8F1000F5BD1002F61D123681A6D12F476
:101D1000007F03D05A6D12F4007F5FD123681A6DE3
:101D200012F0800F03D05A6D12F0800F5DD123683E
:101D30001A6D12F4005F03D05A6D12F4005F5FD188
:101D400023681A6D12F4004F03D05A6D12F4004F3D
:101D50005DD123681A6D12F4804F0AD05A6D12F4C7
:101D6000804F06D04FF480421A65236E43F0800303
:101D70002366002E52D125B123681D65236E2B43A7
:101D80002366236E002B50D1BDE8F88340221A65EC
:101D9000FFF780FFA8E7D3F8D810D3F8E0204FF47E
:101DA0008070186511402046FFF771FFA5E7236892
:101DB000C3F8509049462046FFF765FFA0E7236827
:101DC000C3F8508041462046FFF75EFF9BE723683B
:101DD0001F653946204602F0A1FB96E74FF40072DA
:101DE0001A652046FFF751FF98E7D3F8D410D3F8CF
:101DF000DC208020186511402046FFF747FF96E75A
:101E00004FF400521A652046FFF742FF98E74FF45F
:101E100000421A652046FFF73CFF9AE723681E65DB
:101E200031462046FFF738FFA5E72046FFF733FF8E
:101E3000AAE70000104B1B680BB90120704710B5D2
:101E400004464FF47A70B0FBF3F30C4A1068B0FB11
:101E5000F3F001F0BDF868B90F2C01D901200AE0B8
:101E6000002221464FF0FF3001F09EF8044B1C6029
:101E7000002000E0012010BD00000020080000202C
:101E80000400002010B5032001F07CF80F20FFF7BC
:101E9000D1FF10B10124204610BD0446FFF7ECFC31
:101EA000F9E70000034A1368034909680B4413600B
:101EB000704700BF1007002000000020014B186889
:101EC000704700BF1007002038B50446FFF7F6FF43
:101ED0000546B4F1FF3F02D0044B1B681C44FFF7DA
:101EE000EDFF401BA042FAD338BD00BF0000002028
:101EF000124BDA6802F00302DB68C3F30313013309
:101F0000032A11D00E48B0FBF3F00C4BDB68C3F38F
:101F1000062303FB00F0094BDB68C3F34163013385
:101F20005B00B0FBF3F070470648B0FBF3F0034BE7
:101F3000DB68C3F3062303FB00F0ECE7001002406C
:101F40000024F40000127A00002800F0548270B5DA
:101F500082B00446036813F0010F37D0A44A936897
:101F600003F00C03D26802F003020C2B23D0082BE1
:101F700023D06368B3F5803F4ED0B3F5A02F51D086
:101F80009B4B1A6822F480321A601A6822F480226D
:101F90001A606368002B52D0FFF790FF0546944B00
:101FA0001B6813F4003F11D1FFF788FF401B642822
:101FB000F5D9032028E2032AD9D18D4B1B6813F4ED
:101FC000003F03D06368002B00F01782236813F0F2
:101FD000020F5DD0864A936803F00C03D26802F0CA
:101FE00003020C2B3AD0042B3AD0E368002B75D0B7
:101FF0007F4A136843F480731360FFF75FFF054661
:102000007B4B1B6813F4806F5FD1FFF757FF401BBA
:102010000228F5D90320F7E1754A136843F48033A9
:102020001360B6E703F18043A3F53C331A6842F42A
:1020300080221A601A6842F480321A60A9E7FFF71A
:102040003DFF05466A4B1B6813F4003FBED0FFF707
:1020500035FF401B6428F5D90320D5E1022AC2D1FF
:10206000634B1B6813F4806F03D0E368002B00F010
:10207000C6815F4A536823F0FE43216943EA016346
:1020800053605C4B1868FFF7D5FE002840F0B9811B
:10209000236813F0080F4CD063699BB3544AD2F8FD
:1020A000943043F00103C2F89430FFF707FF054670
:1020B0004F4BD3F8943013F0020F3AD1FFF7FEFEE6
:1020C000401B0228F4D903209EE1494A536823F0BB
:1020D000FE43216943EA01635360D9E7444A136828
:1020E00023F480731360FFF7E9FE0546404B1B683D
:1020F00013F4806FCCD0FFF7E1FE401B0228F5D926
:10210000032081E13A4AD2F8943023F00103C2F867
:102110009430FFF7D3FE0546354BD3F8943013F0D7
:10212000020F06D0FFF7CAFE401B0228F4D9032095
:102130006AE1236813F0040F00F081802C4B9B6D43
:1021400013F0805F36D12A4B9A6D42F080529A6527
:102150009B6D03F080530193019B0125264B1B6867
:1021600013F4807F28D0A368012B39D0052B45D0EC
:102170001F4BD3F8902022F00102C3F89020D3F82F
:10218000902022F00402C3F89020A368002B43D0D3
:10219000FFF794FE0646164BD3F8903013F0020F6B
:1021A0004CD1FFF78BFE801B41F288339842F2D965
:1021B000032029E10025D1E70F4A136843F4807317
:1021C0001360FFF77BFE06460B4B1B6813F4807F02
:1021D000C9D1FFF773FE801B0228F5D9032013E154
:1021E000034AD2F8903043F00103C2F89030CCE7B4
:1021F0000010024004000020007000408A4BD3F819
:10220000902042F00402C3F89020D3F8902042F0CE
:102210000102C3F89020B8E7FFF750FE0646824B54
:10222000D3F8903013F0020F08D0FFF747FE801B61
:1022300041F288339842F2D90320E5E0E5B92368FA
:1022400013F0200F35D0A369E3B1774AD2F8983064
:1022500043F00103C2F89830FFF730FE0546724B99
:10226000D3F8983013F0020F23D1FFF727FE401B5D
:102270000228F4D90320C7E06B4A936D23F0805302
:102280009365DCE7684AD2F8983023F00103C2F87E
:102290009830FFF713FE0546634BD3F8983013F0E0
:1022A000020F06D0FFF70AFE401B0228F4D90320D4
:1022B000AAE0E369002B00F0A6805B4A926802F076
:1022C0000C020C2A69D0022B1DD0574B1A6822F041
:1022D00080721A60DA6822F00302DA60DA6822F0AB
:1022E000887222F48032DA60FFF7E8FD04464E4B34
:1022F0001B6813F0007F4ED0FFF7E0FD001B0228A3
:10230000F5D9032080E0484A136823F080731360F6
:10231000FFF7D4FD0546444B1B6813F0007F06D041
:10232000FFF7CCFD401B0228F5D903206CE03E4AA4
:10233000D3683E491940236A606A013843EA0013B2
:10234000A06A43EA0023206B4008013843EA405367
:10235000606B4008013843EA4063E06A43EAC063C7
:102360001943D160136843F080731360D36843F05E
:102370008073D360FFF7A2FD04462B4B1B6813F05C
:10238000007F06D1FFF79AFD001B0228F5D9032034
:102390003AE0002038E0002036E0012B36D0224B16
:1023A000DB6803F00301226A914231D103F0F002AD
:1023B000616A0139B2EB011F2CD103F4FE42A16A1C
:1023C000B2EB012F28D103F07842E16AB2EBC16F82
:1023D00024D103F4C001226B5208013AB1EB425FF1
:1023E0001ED103F0C063626B5208013AB3EB426F37
:1023F00018D1002008E001207047012004E00120EE
:1024000002E0012000E0002002B070BD0120FBE7E7
:102410000120F9E70120F7E70120F5E70120F3E7C4
:102420000120F1E70120EFE7001002400C809F013E
:102430001E4B9B6803F00C03042B33D01B4B9B6893
:1024400003F00C03082B2FD0184B9B6803F00C03F0
:102450000C2B01D000207047144BDA6802F0030205
:10246000DB68C3F303130133032A11D01048B0FB18
:10247000F3F00E4BDB68C3F3062303FB00F00B4BBA
:10248000DB68C3F3416301335B00B0FBF3F07047DB
:102490000848B0FBF3F0054BDB68C3F3062303FBEE
:1024A00000F0ECE702487047024870470010024015
:1024B0000024F40000127A00002800F0E680F8B54D
:1024C0000C460546744B1B6803F00F038B420BD27E
:1024D000714A136823F00F030B431360136803F072
:1024E0000F038B4240F0D3802E6816F001065FD0B8
:1024F0006B68032B2FD0022B4DD0684B1B6813F455
:10250000806F00F0C680FFF793FF654B98424DD96E
:10251000624A936823F0F00343F0800393608026BF
:102520005E4A936823F0030369680B439360FFF7E7
:10253000C5FC0746594B9B6803F00C036A68B3EB74
:10254000820F35D0FFF7BAFCC01B41F288339842A6
:10255000F0D9032078E0514B1B6813F0007F01D1C4
:10256000012071E0FFF7C4FC4D4B98421AD94B4B48
:102570009B6813F0F00F05D02E6816F00206CFD03E
:10258000AB688BB9454A936823F0F00343F08003AE
:1025900093608026C4E7414B1B6813F4003FB2D11F
:1025A000012051E00026BBE70026B9E70026B7E787
:1025B0002B6813F0020F48D013F0040F04D0374AF1
:1025C000936843F4E06393602B6813F0080F06D020
:1025D000324A936823F47C5343F4E06393602F4AB8
:1025E000936823F0F003A9680B4393602A4B1B68A0
:1025F00003F00F03A34230D82B6813F0040F06D06A
:10260000264A936823F4E063E9680B4393602B68E0
:1026100013F0080F07D0214A936823F46053296907
:1026200043EAC1039360FFF703FF1C4B9B68C3F3AE
:1026300003131C4AD35C03F01F03D8401A4B1860E5
:102640001A4B1868FFF7F6FBF8BD802ECED1134A5F
:10265000936823F0F0039360C8E70F4A136823F0F0
:102660000F0323431360FFF729FC06460A4B1B6840
:1026700003F00F03A342BFD0FFF720FC801B41F201
:1026800088339842F2D90320DEE701207047012009
:10269000DAE70120D8E700BF002002400010024026
:1026A00000B4C404A0860008080000200400002034
:1026B000014B1868704700BF0800002008B5FFF7FD
:1026C000F7FF054B9B68C3F30223044AD35C03F076
:1026D0001F03D84008BD00BF0010024098860008C4
:1026E00008B5FFF7E5FF054B9B68C3F3C223044A17
:1026F000D35C03F01F03D84008BD00BF00100240A8
:1027000098860008F0B583B00446036813F4002FE0
:1027100069D0AE4B9B6D13F0805F1ED1AB4B9A6DB1
:1027200042F080529A659B6D03F080530193019BA8
:102730000126A74A136843F480731360FFF7BEFBBA
:102740000546A34B1B6813F4807F08D1FFF7B6FB47
:10275000401B0228F5D9032502E00026E9E7002501
:1027600045BB9A4BD3F8903013F4407315D0226CCC
:102770009A4212D0954AD2F8903023F44073D2F89E
:10278000901041F48031C2F89010D2F8901021F4EA
:102790008031C2F89010C2F8903013F0010F10D1C0
:1027A00045B98A4AD2F8903023F44073216C0B4328
:1027B000C2F89030C6B1854A936D23F0805393657B
:1027C00012E0FFF77BFB0746804BD3F8903013F005
:1027D000020FE5D1FFF772FBC01B41F2883398422C
:1027E000F2D90325DCE70025236813F0010F08D098
:1027F000764AD2F8883023F0030361680B43C2F8AD
:102800008830236813F0020F08D0704AD2F888305D
:1028100023F00C03A1680B43C2F88830236813F03F
:10282000040F08D0694AD2F8883023F03003E168F9
:102830000B43C2F88830236813F0080F08D0634AAE
:10284000D2F8883023F0C00321690B43C2F88830E6
:10285000236813F0200F08D05C4AD2F8883023F4A4
:10286000406361690B43C2F88830236813F0400F5E
:1028700008D0564AD2F8883023F44053A1690B435C
:10288000C2F88830236813F0800F08D04F4AD2F87E
:10289000883023F44043E1690B43C2F88830236851
:1028A00013F4807F08D0494AD2F8883023F44033AB
:1028B000216A0B43C2F88830236813F4007F08D0E4
:1028C000424AD2F8883023F44023616A0B43C2F8AD
:1028D0008830236813F4806F0CD03C4AD2F88830DB
:1028E00023F44013A16A0B43C2F88830A36AB3F5FE
:1028F000801F57D0236813F4006F0CD0334AD2F8EE
:10290000883023F44003E16A0B43C2F88830E36A5D
:10291000B3F5800F4BD0236813F4805F0CD02B4AA3
:10292000D2F8883023F04073216B0B43C2F8883013
:10293000236BB3F1807F3FD0236813F4005F0CD08A
:10294000224AD2F8883023F04063616B0B43C2F80F
:102950008830636BB3F1006F33D0236813F4804F7A
:102960000CD01A4AD2F8883023F04063A16B0B4395
:10297000C2F88830A36BB3F1006F2BD0236813F437
:10298000004F0CD0114AD2F8883023F04053E16B4D
:102990000B43C2F88830E36BB3F1805F1FD0284649
:1029A00003B0F0BDD36843F48013D360A2E7D368CB
:1029B00043F48013D360AEE7D36843F48013D3604D
:1029C000BAE7D36843F48013D360C6E7001002402F
:1029D00000700040D36843F48013D360CEE7D3681F
:1029E00043F48033D360DAE7F0B583B0002362E0CC
:1029F00085685E000324B44025EA0405CC68B44031
:102A00002C438460456825EA0C054C68C4F3001427
:102A10009C402C4344605FE0DD08083550F82540B9
:102A200003F0070C4FEA8C0C4FF00F0E0EFA0CFE61
:102A300024EA0E0E0C6904FA0CF444EA0E0440F881
:102A4000254060E0052400E0002404FA0EF42C4345
:102A50000CF1020C554D45F82C40554CA568D4435B
:102A600025EA02064F6817F4801F01D042EA0506E6
:102A70004F4DAE60ED6804EA05064F6817F4001F7D
:102A800001D042EA05064A4DEE606D6804EA05068B
:102A90004F6817F4003F01D042EA0506444D6E60CE
:102AA0002D682C404E6816F4803F01D042EA0504A0
:102AB0003F4A146001330A6832FA03F474D04FF0CD
:102AC000010C0CFA03FC1CEA0202F3D04C6804F07F
:102AD0000304013C012C8BD94C6804F00304032C43
:102AE0000CD0C4685D004FF0030C0CFA05FC24EA1E
:102AF0000C0C8C68AC4044EA0C04C4604C6804F0D4
:102B00000304022C88D004684FEA430E4FF0030CF4
:102B10000CFA0EFC24EA0C0C4C6804F0030404FAD2
:102B20000EF444EA0C0404604C6814F4403FC1D035
:102B3000204C256E45F001052566246E04F0010445
:102B40000194019C4FEA930C0CF10205174C54F8C8
:102B5000255003F0030E4FEA8E0E0F2404FA0EF4F4
:102B600025EA0405B0F1904F3FF46EAF124CA0423D
:102B700012D004F58064A04210D004F58064A04215
:102B80000ED004F58064A0420CD004F58064A0420D
:102B90003FF458AF062458E7012456E7022454E7CF
:102BA000032452E7042450E703B0F0BD00000140C5
:102BB0000004014000100240000400480AB1816195
:102BC000704781627047436901EA030221EA030109
:102BD00041EA02418161704703680C4A934213D86D
:102BE0000B49DBB2083B0B4AA2FB0323426C22F0E9
:102BF00003020A448264084AC264C3F30413012234
:102C000002FA03F3036570470449EAE70704024048
:102C100000080240CDCCCCCC800802402008024005
:102C20000379074A1A4492004265064A8265013BCD
:102C300003F01F03012202FA03F3C365704700BFCC
:102C40003F8200104009024000285BD010B50446C6
:102C500001682D4B99423DD82C4B0B442C4AA2FBCA
:102C600003231B099B0043642A4B0364022384F85B
:102C700025300A6822F4FF4222F07002A368E0685F
:102C800003432069034360690343A0690343E06988
:102C90000343206A034313430B602046FFF79CFF66
:102CA000A368B3F5804F20D0A36C22791A60E36C3F
:102CB000226D5A606368013B032B19D900236365B9
:102CC000A365E3650020E063012384F8253084F8E0
:102CD000240010BD104B0B440D4AA2FB03231B091B
:102CE0009B0043640D4B0364C0E700236360DBE794
:102CF0002046FFF795FF636D00221A60A36DE26D19
:102D00005A60DFE70120704707040240F8FFFDBF6B
:102D1000CDCCCCCC00000240F8FBFDBF000402404B
:102D200038B5036C196804682568436C03F01F0309
:102D300004229A400A4215D015F0040F12D02368DD
:102D400013F0200F03D1236823F004032360436CA6
:102D500003F01F02016C042393404B60036B03B12B
:102D6000984738BD02229A400A421CD015F0020F43
:102D700019D0236813F0200F06D1236823F00A032B
:102D80002360012380F82530436C03F01F02016C9F
:102D9000022393404B60002380F82430C36A002B49
:102DA000DFD09847DDE7082202FA03F30B42D8D0C0
:102DB00015F0080FD5D0236823F00E032360436C71
:102DC00003F01F03016C012202FA03F34B60C2639C
:102DD00080F82520002380F82430436B002BC0D0DE
:102DE0009847BEE7002836D13E4B1B6803F4C0630A
:102DF000B3F5806F08D03B4AD2F8803023F480735B
:102E0000C2F8803000207047364AD2F8803023F470
:102E10008073C2F88030136823F4C06343F40073F6
:102E20001360314B1B68322202FB03F32F4AA2FBD3
:102E300003239B0C013300E0013B2A4A526912F440
:102E4000806F01D0002BF7D1264B5B6913F4806FA4
:102E500044D100207047B0F5007F08D0214A1368A4
:102E600023F4C06343F480631360002070471D4B5C
:102E70001B6803F4C063B3F5806F08D0194AD2F819
:102E8000803043F48073C2F8803000207047154AC8
:102E9000D2F8803043F48073C2F88030136823F492
:102EA000C06343F4007313600F4B1B68322202FBB4
:102EB00003F30E4AA2FB03239B0C013300E0013B0A
:102EC000084A526912F4806F01D0002BF7D1054BEC
:102ED0005B6913F4806F03D10020704703207047B3
:102EE00003207047007000400800002083DE1B4371
:102EF000024A936843F48043936070470070004037
:102F0000002807DB00F01F02400901239340024A1A
:102F100042F82030704700BF00E100E0002808DBE5
:102F20000901C9B200F1604000F5614080F800136A
:102F3000704700F00F000901C9B2014B19547047E6
:102F400014ED00E000B500F00700C0F1070CBCF183
:102F5000040F28BF4FF0040C031D062B0FD9C31E0E
:102F60004FF0FF3E0EFA0CF021EA000199400EFAF4
:102F700003FE22EA0E0241EA02005DF804FB002390
:102F8000EEE70000074AD36823F4E0631B041B0C40
:102F9000000200F4E060034343F0BF6343F40033F6
:102FA000D360704700ED00E010B50446054BD868CB
:102FB000C0F30220FFF7C6FF01462046FFF7AEFF31
:102FC00010BD00BF00ED00E008B5FFF799FF08BD98
:102FD0000138B0F1807F0BD24FF0E0235861054AF1
:102FE000F02182F823100020986107221A617047AF
:102FF0000120704700ED00E0002859D010B50446CC
:1030000090F84130002B43D0242384F841302268CB
:10301000136823F0010313606368226823F0706370
:1030200013612268936823F400439360E368012BE3
:1030300033D0A368226843F404439360E368022B0F
:1030400031D02268536843F0007343F40043536067
:103050002268D36823F40043D36023696269134371
:10306000A169226843EA0123D360E369216A2268E7
:103070000B4313602268136843F0010313600020C0
:103080006064202384F84130206384F8420010BD3E
:1030900080F84030FEF72AF8B6E7A368226843F4C8
:1030A00000439360CAE723684FF400625A60C8E7A0
:1030B00001207047034690F84120D2B2202A23D144
:1030C00090F84020012A21D0012280F840202422BB
:1030D00080F841200068026822F00102026018684E
:1030E000026822F48052026018680268114301608D
:1030F00019680A6842F001020A60202283F8412020
:10310000002083F84000704702207047022070477B
:10311000034690F84120D2B2202A21D190F84020D5
:10312000012A1FD0012280F84020242280F841206B
:103130000068026822F0010202601868026822F446
:10314000706242EA0122026019680A6842F00102D4
:103150000A60202283F84120002083F84000704755
:10316000022070470220704700286FD010B5044637
:10317000436A33B94368B3F5827F05D00023C36146
:1031800002E00023036143610023A36294F85D30F1
:10319000002B52D0022384F85D302268136823F09C
:1031A00040031360E368B3F5E06F4CD90022B3F538
:1031B000706F04D0B3F5E06F01D00023A3626368A1
:1031C00003F48273A16801F404410B43216901F007
:1031D00002010B43616901F001010B43A16901F494
:1031E00000710B43E16901F038010B43216A01F0E2
:1031F00080010B43A16A01F4005120680B43036076
:10320000638B03F00403616A01F010010B43616BEF
:1032100001F008010B43E16801F470610B43216880
:103220001A434A602268D36923F40063D361002003
:103230002066012384F85D3010BD84F85C302046A0
:10324000FEF714F8A6E74FF48052B0E7012070476C
:1032500030B4036A23F001030362026A446883699D
:1032600023F4803323F073030D681D4322F0020220
:103270008B6813431C4A90420FD002F500629042C3
:103280000BD002F54062904207D002F58062904276
:1032900003D002F58062904205D123F00803CA688A
:1032A0001A4322F00403104A90420FD002F5006244
:1032B00090420BD002F54062904207D002F5806246
:1032C000904203D002F58062904205D124F440740C
:1032D0004A6922438C691443446085614A684263A9
:1032E000036230BC704700BF002C014030B4036A59
:1032F00023F480730362036A4468C26922F4803253
:1033000022F073020D68154323F400738A6843EAC0
:103310000223184A904203D002F50062904206D17F
:1033200023F40063CA6843EA022323F48063114A4A
:1033300090420FD002F5006290420BD002F540623D
:10334000904207D002F58062904203D002F580627D
:10335000904207D124F440524C6942EA04128C692D
:1033600042EA04144460C5614A68C263036230BC27
:10337000704700BF002C014030B4036A23F480532F
:103380000362036A4468C26922F0807222F4E64252
:103390000D6842EA052223F400538D6843EA0533A1
:1033A000174DA84203D005F50065A84206D123F4C5
:1033B0000043CD6843EA053323F48043104DA8420F
:1033C0000FD005F50065A8420BD005F54065A84271
:1033D00007D005F58065A84203D005F58065A842B1
:1033E00007D124F4404C4C694CEA841C8C694CEAAB
:1033F00084144460C2614A680264036230BC70474E
:10340000002C014030B4036A23F480330362036A62
:103410004468026D22F4803222F070020D68154378
:1034200023F400338A6843EA02430F4A90420FD0E4
:1034300002F5006290420BD002F54062904207D044
:1034400002F58062904203D002F58062904204D17E
:1034500024F480344A6944EA0224446005654A68D9
:103460008264036230BC7047002C014030B4036AB0
:1034700023F480130362036A4468026D22F08072B1
:1034800022F4E0420D6842EA052223F400138D681D
:1034900043EA05530F4DA8420FD005F50065A84239
:1034A0000BD005F54065A84207D005F58065A84218
:1034B00003D005F58065A84204D124F480244D6929
:1034C00044EA8524446002654A68C264036230BCF1
:1034D000704700BF002C014010B4036A046A24F056
:1034E00001040462846924F0F00C4CEA021223F017
:1034F0000A030B43826103625DF8044B704710B40A
:10350000036A23F0100303628469036A24F4704C95
:103510004CEA023223F0A00343EA01138261036202
:103520005DF8044B7047836823F4401323F0700365
:103530000B4343F007038360704770477047704741
:1035400070477047704710B5044603681A6912F057
:10355000020F12D0DA6812F0020F0ED06FF00202E2
:103560001A610123037703689B6913F0030F00F0CE
:103570009F80FFF7E5FF0023237723681A6912F085
:10358000040F13D0DA6812F0040F0FD06FF00402AA
:103590001A610223237723689B6913F4407F00F0AC
:1035A0008D802046FFF7CCFF0023237723681A691C
:1035B00012F0080F12D0DA6812F0080F0ED06FF078
:1035C00008021A61042323772368DB6913F0030FD1
:1035D0007BD02046FFF7B4FF0023237723681A69C6
:1035E00012F0100F12D0DA6812F0100F0ED06FF038
:1035F00010021A61082323772368DB6913F4407FE4
:103600006AD02046FFF79CFF0023237723681A69BE
:1036100012F0010F03D0DA6812F0010F63D12368B2
:103620001A6912F0800F03D0DA6812F0800F61D1AE
:1036300023681A6912F4807F03D0DA6812F0800FD1
:103640005FD123681A6912F0400F03D0DA6812F0D4
:10365000400F5DD123681A6912F0200F03D0DA6899
:1036600012F0200F5BD123681A6912F4801F03D077
:10367000DA6812F4801F59D123681A6912F4001F06
:1036800003D0DA6812F4001F57D123681A6912F4C4
:10369000800F03D0DA6812F4800F55D123681A69BD
:1036A00012F4000F03D0DA6812F4000F53D110BDEA
:1036B000FFF745FF2046FFF744FF5CE72046FFF792
:1036C0003EFF2046FFF73DFF6EE72046FFF737FF3E
:1036D0002046FFF736FF7FE72046FFF730FF204602
:1036E000FFF72FFF90E76FF001021A612046FFF706
:1036F00025FF94E76FF080021A61204600F01DFB61
:1037000096E76FF480721A61204600F017FB98E785
:103710006FF040021A612046FFF714FF9AE76FF03E
:1037200020021A61204600F007FB9CE76FF480122C
:103730001A61204600F003FB9EE76FF400121A6145
:10374000204600F0FDFAA0E76FF480021A612046DF
:1037500000F0F7FAA2E76FF400021A61204600F0C9
:10376000F1FAA4E703682C4A90420ED0B0F1804FE2
:103770000BD0A2F59432904207D002F580629042BD
:1037800003D002F59632904203D123F070034A68C9
:103790001343214A90421AD0B0F1804F17D0A2F5BE
:1037A0009432904213D002F5806290420FD002F51D
:1037B000963290420BD002F54062904207D002F55B
:1037C0008062904203D002F58062904203D123F4DC
:1037D0004073CA68134323F080034A6913430360AC
:1037E0008B68C3620B6883620B4B98420FD003F562
:1037F000006398420BD003F54063984207D003F56D
:103800008063984203D003F58063984201D10B692D
:103810000363012343617047002C014060B310B57E
:10382000044690F83D3013B3022384F83D3021461E
:1038300051F8040BFFF796FF012384F8483084F811
:103840003E3084F83F3084F8403084F8413084F8CA
:10385000423084F8433084F8443084F8453084F8AA
:10386000463084F8473084F83D30002010BD80F8A1
:103870003C30FDF759FED7E70120704760B310B523
:10388000044690F83D3013B3022384F83D302146BE
:1038900051F8040BFFF766FF012384F8483084F8E1
:1038A0003E3084F83F3084F8403084F8413084F86A
:1038B000423084F8433084F8443084F8453084F84A
:1038C000463084F8473084F83D30002010BD80F841
:1038D0003C30FFF732FED7E701207047002853D075
:1038E000F8B50D46044690F83D30002B47D0022332
:1038F00084F83D302268936823F4A03323F0070353
:103900009360214651F8040BFFF72CFF21688B6868
:103910008A690E6A2868184322F4407222F0030272
:10392000AB68AF6943EA0723134323F47C4323F0D6
:10393000FC03EA68EF6942EA07221A432B6A1B0379
:103940002F6943EA0713134326F0AA066A686D69D4
:1039500042EA05123243886021688B6123681A624B
:10396000012384F8483084F83E3084F83F3084F8EE
:10397000443084F8453084F83D300020F8BD80F8AC
:103980003C30FDF77BFDB2E70120704730B4036A9D
:1039900023F010030362036A4468826922F0807294
:1039A00022F4E6420D6842EA052223F020038D68E6
:1039B00043EA0513174DA84203D005F50065A84258
:1039C00006D123F08003CD6843EA051323F04003BA
:1039D000104DA8420FD005F50065A8420BD005F5A3
:1039E0004065A84207D005F58065A84203D005F5DB
:1039F0008065A84207D124F4406C4C694CEA840CE1
:103A00008C694CEA8404446082614A688263036280
:103A100030BC7047002C014038B590F83C30012B89
:103A200000F0958004460D46012380F83C30142AAE
:103A300000F28880DFE802F00B8686861F86868685
:103A400034868686488686865D868686710000680E
:103A5000FFF7FEFB2268936943F008039361226835
:103A6000936923F0040393612268936929690B43E6
:103A70009361002067E00068FFF788FF2268936980
:103A800043F4006393612268936923F48063936134
:103A900022689369296943EA01239361002052E077
:103AA0000068FFF723FC2268D36943F00803D36161
:103AB0002268D36923F00403D3612268D36929699A
:103AC0000B43D36100203EE00068FFF755FC2268FD
:103AD000D36943F40063D3612268D36923F480631C
:103AE000D3612268D369296943EA0123D3610020A5
:103AF00029E00068FFF786FC2268136D43F0080395
:103B000013652268136D23F0040313652268136D97
:103B100029690B431365002015E00068FFF7A6FC38
:103B20002268136D43F4006313652268136D23F458
:103B3000806313652268136D296943EA01231365C5
:103B4000002000E00120002384F83C3038BD022032
:103B5000FCE710B4846824F47F4C42EA03220A4351
:103B600042EA0C0282605DF8044B704790F83C30EA
:103B7000012B00F08F8010B50446012380F83C3003
:103B8000022380F83D3002689068434B0340936005
:103B90000B68702B55D031D8502B6CD00CD9602BC2
:103BA0002AD1CA6849682068FFF7A9FC602120680B
:103BB000FFF7B9FC002035E0402B0AD1CA684968FC
:103BC0002068FFF789FC40212068FFF7ACFC00204B
:103BD00028E05BD8202B07D003D9302B04D001205C
:103BE00020E00BB1102B05D119462068FFF79BFC94
:103BF000002017E0012015E0012013E0B3F5005F7D
:103C00002CD00BD9254A9342EED012D9244A9342A4
:103C1000EAD030329342E7D0012003E0B3F5805F71
:103C200036D10020012384F83D30002384F83C3055
:103C300010BDB3F1101FD7D0103A9342D4D0012059
:103C4000F0E7CB684A6889682068FFF782FF22683E
:103C5000936843F0770393600020E3E7CB684A68FA
:103C600089682068FFF775FF2268936843F48043F2
:103C700093600020D6E7CA6849682068FFF72CFCEB
:103C800050212068FFF74FFC0020CBE70120C9E757
:103C90000120C7E7022070478800CEFF30001000E7
:103CA0004000100090F83C20012A40D030B4034678
:103CB000012280F83C20022280F83D200068426802
:103CC00084681C4DA84203D005F50065A84203D1C5
:103CD00022F470024D682A4322F0007222F0700232
:103CE0000D682A4342601A681248824212D0B2F12B
:103CF000804F0FD0A0F5943082420BD000F5806049
:103D0000824207D000F59630824203D000F5406031
:103D1000824204D124F08004896821439160012209
:103D200083F83D20002083F83C0030BC704702201F
:103D3000704700BF002C01407047704770477047C4
:103D4000704770477047000070B50446016883688B
:103D50000269134342691343C269134308688B4ADB
:103D600002401A430A602268536823F44053E16812
:103D70000B435360A1692268854B9A4201D0236AA4
:103D80001943936823F06E4323F430630B4393602D
:103D90002268D36A23F00F03616A0B43D36223685E
:103DA0007C4A934223D07C4A934234D07B4A93424C
:103DB0004AD07B4A934259D0754A934268D0102228
:103DC00073498B4200F09580E069B0F5004F00F038
:103DD000D280082A00F24F81DFE812F0120134018C
:103DE00010014D0137014D014D014D013A0102F520
:103DF0005842D2F8882002F00302032A09D8DFE8EB
:103E000002F002045C060122DAE70422D8E7082265
:103E1000D6E71022D4E702F5E632D2F8882002F085
:103E20000C020C2A0ED8DFE802F0070D0D0D090D6B
:103E30000D0D4A0D0D0D0B000022C1E70422BFE756
:103E40000822BDE71022BBE702F5E432D2F8882051
:103E500002F03002202A34D004D8A2B3102A34D180
:103E60000422ADE7302A32D10822A9E702F5E23276
:103E7000D2F8882002F0C002802A2AD004D852B397
:103E8000402A2AD104229BE7C02A28D1082297E79A
:103E900002F5C832D2F8882002F44062B2F5006F11
:103EA0001FD005D8FAB1B2F5806F1ED1042287E782
:103EB000B2F5406F1BD1082282E7022280E702227E
:103EC0007EE702227CE700227AE7102278E71022C0
:103ED00076E7022274E7002272E7102270E71022D0
:103EE0006EE702226CE700226AE7102268E71022E0
:103EF00066E7082A00F2AF80DFE802F008AD3BADCC
:103F000038ADADAD05004FF4004004E0FEF7D6FB40
:103F1000002800F0A280626A224B33F81220B0FB26
:103F2000F2F3656805EB4501994200F29880B3EB26
:103F3000053F00F29680002633463146FCF750F9E3
:103F4000090241EA106100026B08C0182A46334694
:103F500041F10001FCF744F9A0F54072124B9A427E
:103F600000F281802368D860304662E0FEF760FA94
:103F7000CEE70E48CFE7082A77D8DFE802F01939F4
:103F800005763C7676761D00084815E0F369FFCF8C
:103F900000800040003801400044004000480040DC
:103FA000004C004070860008FFFC0F000024F40065
:103FB000FEF784FB00285AD0626A324B33F8123085
:103FC000B0FBF3F06268530803EB4003B3FBF2F37A
:103FD000A3F110014FF6EF7291424AD89AB222F043
:103FE0000F02C3F3420313432268D360002020E092
:103FF000FEF776FBDEE7FEF71BFADBE7224803E07D
:10400000FEF75CFB002838D0626A1E4B33F8123092
:10401000B0FBF3F0636800EB5300B0FBF3F0A0F1EA
:1040200010024FF6EF739A4229D8236880B2D86005
:1040300000200123A4F86A30A4F868300023236725
:10404000636770BDFEF74CFBDCE7FEF7F1F9D9E7DB
:104050004FF40040D8E70120EBE70020E9E701201A
:10406000E7E70120E5E70120E3E70120E1E70020A1
:10407000DFE70120DDE70120DBE70020D9E70120B1
:10408000D7E700BF708600080024F400836A13F0AD
:10409000010F06D00268536823F40033C16A0B4352
:1040A0005360836A13F0020F06D00268536823F44A
:1040B0008033016B0B435360836A13F0040F06D007
:1040C0000268536823F48023416B0B435360836A77
:1040D00013F0080F06D00268536823F40043816B85
:1040E0000B435360836A13F0100F06D00268936885
:1040F00023F48053C16B0B439360836A13F0200F4A
:1041000006D00268936823F40053016C0B4393605C
:10411000836A13F0400F0AD00268536823F48013B7
:10412000416C0B435360436CB3F5801F0BD0836A23
:1041300013F0800F06D00268536823F40023C16C8B
:104140000B43536070470268536823F4C003816CCB
:104150000B435360EBE72DE9F84305460F4616463F
:104160009946DDF820802B68DC6937EA04040CBF2F
:1041700001240024B44257D1B8F1FF3FF3D0FDF73A
:104180009DFEA0EB090040452FD8B8F1000F2CD0C0
:104190002B681A6812F0040FE5D0DA6912F4006F88
:1041A000E1D04FF400621A622A6852E8003F23F41B
:1041B000D07342E800310029F6D12A6802F10803E1
:1041C00053E8003F23F00103083242E800310029A0
:1041D000F3D12023C5F88430C5F88830C5F88C3079
:1041E000002385F8803003201FE02A6852E8003F52
:1041F00023F4D07342E800310029F6D12A6802F195
:10420000080353E8003F23F00103083242E800317D
:104210000029F3D12023C5F88430C5F88830002365
:1042200085F88030032000E00020BDE8F8832DE908
:10423000F04182B01E46D0F88430202B58D104467D
:104240000D469046002957D0002A57D090F880306C
:10425000012B55D0012380F880300023C0F88C302A
:104260002123C0F88430FDF729FE0746A4F85480C6
:10427000A4F85680A368B3F5805F05D04FF000081E
:10428000002384F8803014E0236913B14FF0000854
:10429000F6E7A8460025F3E738F8023B2268C3F3A7
:1042A00008039362B4F8562092B2013A92B2A4F88D
:1042B0005620B4F856309BB273B100963B460022AC
:1042C00080212046FFF747FFE0B9002DE4D015F824
:1042D000012B23689A62E5E700963B4600224021C5
:1042E0002046FFF738FF78B92023C4F8843000E077
:1042F000022002B0BDE8F0810120FAE70120F8E7D2
:104300000220F6E70320F4E70320F2E730B583B09C
:1043100004460023C0F88C30FDF7D0FD0546226826
:10432000126812F0080F0FD123681B6813F0040FF6
:1043300018D12023C4F88430C4F888300020E06607
:1043400084F8800003B030BD6FF07E4300930346D5
:1043500000224FF400112046FFF7FDFE0028E3D0B5
:104360000320EFE76FF07E4300932B4600224FF4CB
:1043700080012046FFF7EFFE0028DAD00320E1E7B6
:1043800078B310B50446D0F884300BB32423C4F8B6
:1043900084302268136823F0010313602046FFF77E
:1043A000D3FC012813D0A36ABBB92268536823F455
:1043B000904353602268936823F02A039360226835
:1043C000136843F0010313602046FFF79FFF10BD01
:1043D00080F88030FDF788F9D8E72046FFF756FED1
:1043E000E3E7012070470000436E2BB90123A0F8DA
:1043F0006A30A0F86830704730B403689A68C2F336
:1044000042629968490F094D6B5CDB00084C615CA6
:1044100093FBF1F3A0F86A30AB5CDB00A25C93FB8A
:10442000F2F3A0F8683030BC704700BF90860008F7
:104430008886000890F88030012B18D0012380F87E
:1044400080302423C0F8843003681A68196821F08A
:104450000101196022F000520023436601680A60DE
:104460002022C0F8842080F880301846704702204F
:10447000704738B590F88030012B1DD004460123D9
:1044800080F880302423C0F8843003681D681A68DF
:1044900022F001021A600268936823F06043194316
:1044A0009160FFF7A1FF23681D602023C4F88430CA
:1044B000002084F8800038BD0220FCE738B590F871
:1044C0008030012B1DD00446012380F88030242346
:1044D000C0F8843003681D681A6822F001021A606F
:1044E0000268936823F0606319439160FFF77CFFD3
:1044F00023681D602023C4F88430002084F88000E5
:1045000038BD0220FCE70000034AD2F8883043F4AB
:104510007003C2F88830704700ED00E010B588B035
:104520000DF1040C094C0FCCACE80F0094E8070027
:10453000ACE803008CF800204FF0FF33192201A9EA
:104540000348FFF774FE08B010BD00BFB086000836
:104550008006002072B6FEE700B595B03822002133
:1045600006A802F0C6F80023019302930393049374
:1045700005934FF40070FEF735FC022306934FF4C9
:104580008072099240220A920D930E9301220F929B
:104590000F221092119308221292139306A8FDF78E
:1045A000D3FC70B90F2301930321029100230393DD
:1045B0000493059301A8FDF77FFF20B915B05DF8BE
:1045C00004FBFFF7C7FFFFF7C5FF000010B5A4B05D
:1045D000FDF758FCFFF7C0FFFCF724FCFCF796FC46
:1045E000FCF7DEFCFCF752FDFCF7AAFEFCF7F2FF3D
:1045F000FDF746F8FCF714FEFCF7D6FEFCF706FFC5
:1046000001224FF400611B48FEF7D8FA05A800F01C
:104610004FF805A800F064F808E04FF480614FF00F
:104620009040FEF7D0FA6420FDF74EFC9DF88C30E8
:10463000002BF2D0EC46104C0FCCACE80F002368F6
:10464000CCF800304FF0FF33142269460B48FFF7D7
:10465000EEFD01224FF480614FF09040FEF7AEFA7C
:104660004FF400610348FEF7AEFA4FF4FA70FDF71D
:104670002BFCF5E700040048CC86000880060020EB
:10468000012800D070474FF6FF739942FAD1064BCC
:10469000064A1A6000225A601A724FF09042DA609D
:1046A00004221A82EEE700BF14070020280500202C
:1046B00008B5002380F878300366436602228266DC
:1046C0000122C2660367436700F160010348FDF7FA
:1046D0000DFA00B908BDFFF73DFFFBE7FC01002024
:1046E00000B585B0002201210F48FDF749FAA0B9B5
:1046F0000D48FDF72EFA98B90C4BEC460FCBACE801
:104700000700ACF800304FF0FF330E22694608482E
:10471000FFF78DFD05B05DF804FBFFF71BFFE7E732
:10472000FFF718FFE8E700BFFC010020E086000863
:104730008006002008B54FF6FF710120FFF7A0FFAB
:1047400008BD00000D4885460D480E490E4A00235D
:1047500002E0D458C4500433C4188C42F9D30B4A35
:104760000B4C002301E013600432A242FBD3FFF79D
:10477000CBFE02F05BF8FFF729FFFEE70080002088
:1047800000000020E0010020588B0008E00100201C
:1047900018090020FEE700002DE9F047089D0C46AF
:1047A000002B4ED194468C458646B2FA82F262D9ED
:1047B0004AB1C2F12003914020FA03F30CFA02FC43
:1047C000194300FA02FE4FEA1C471FFA8CF6B1FBB0
:1047D000F7F44FEA1E4307FB141143EA014304FBBD
:1047E00006F199420AD91CEB030304F1FF3080F073
:1047F0001281994240F20F81023C6344591A1FFA18
:104800008EF3B1FBF7F007FB101143EA014300FB05
:1048100006F69E420AD91CEB030300F1FF3180F03B
:10482000FC809E4240F2F980634402389B1B40EAC0
:10483000044000211DB1D3400022C5E90032BDE88B
:10484000F0878B4205D90DB1C5E90001002108466A
:10485000F5E7B3FA83F1002946D1A34202D390428F
:10486000C0F0F080861A64EB03030120002DE6D02F
:10487000C5E90063E3E7002A40F09080A1EB0C0457
:104880004FEA1C481FFA8CF70121B4FBF8F64FEAF7
:104890001E4308FB164443EA044307FB06F0984214
:1048A00008D91CEB030306F1FF3402D2984200F250
:1048B000CD8026461C1A1FFA8EF3B4FBF8F008FBD5
:1048C000104443EA044300FB07F79F4208D91CEB5E
:1048D000030300F1FF3402D29F4200F2B080204671
:1048E000DB1B40EA0640A5E7C1F120068B4022FA17
:1048F00006F71F4320FA06FC04FA01F343EA0C030F
:10490000F44000FA01F8380C4FEA1349B4FBF0FE0A
:104910001FFA87FC00FB1E4449EA04440EFB0CF915
:10492000A14502FA01F20AD93C190EF1FF3A80F0D2
:104930008480A14540F28180AEF1020E3C44A4EB9C
:1049400009041FFA83F9B4FBF0F300FB134449EAAE
:10495000044403FB0CFCA44507D93C1903F1FF30C8
:1049600067D2A44565D9023B3C4443EA0E40A0FB14
:104970000293A4EB0C049C42CE469C4651D34ED0ED
:1049800055B1B8EB0E0364EB0C0404FA06F6CB4009
:104990001E43CC40C5E90064002150E7C2F120036A
:1049A00020FA03F10CFA02FC24FA03F394400C43BE
:1049B0004FEA1C4800FA02FE1FFA8CF7B3FBF8F02E
:1049C00008FB1031230C43EA014300FB07F1994235
:1049D00008D91CEB030300F1FF362CD299422AD9E7
:1049E000023863445B1AA4B2B3FBF8F108FB11333D
:1049F00044EA034401FB07F3A34208D91CEB040477
:104A000001F1FF3613D2A34211D902396444E41AEA
:104A100041EA004139E70446F0E6084606E7C845A2
:104A2000AED2B9EB020E63EB070C0138A8E73146B2
:104A3000EDE7034699E73046D4E7D6467FE763447F
:104A400002384DE70646234608460FE7023E634418
:104A500030E700BF03685A004CBF43F0004323F027
:104A600000431844704700BF2DE9F84349B34F1E77
:104A7000044615463E464FF0000909EB060101EBDE
:104A8000D171491004EBC1084046FFF7E3FF8F42A4
:104A900003464FEAC1000FD00830AB42204407D88C
:104AA000FFF7D8FF0138A84208D201F10109E4E775
:104AB000894506D04E1EE0E7AB42F9D84046BDE836
:104AC000F8834FF000084046BDE8F883012807D07E
:104AD000022807D0044B00280CBF1846002070475E
:104AE0000248704702487047795100088151000818
:104AF0008951000830B5214B83B004468D1E1BB38D
:104B000001A92846AFF3008088B301992A46FFF730
:104B1000ABFF014658B3FFF79DFF4B68A064012B24
:104B200028D0002B01F104001FDBFFF793FF0023C7
:104B300023650368E064002B0DDBFFF78BFF034662
:104B40000020236103B030BD0D4B0E49C91AC910B6
:104B500018460191DAE7C3F30360FFF7B7FF034696
:104B600028B10020236103B030BD0123E0E700231A
:104B70000920E6E700230520E3E700BF000000006E
:104B8000848A00084C8B00080368DA0710B50446D5
:104B900006D49B0700F1480009D5FBF74DFB2368BD
:104BA000590709D51A070ED5DB0613D510BDFBF73B
:104BB0003BFB23685907F5D404F1D000FBF744FB15
:104BC00023681A07F0D404F5A870FBF745FB2368A7
:104BD000DB06EBD404F5E870BDE81040FBF780BBC2
:104BE0000346006800B11844704700BF704700BF1B
:104BF00070B504460E46316C2046FFF77BFF054634
:104C000088B9326C62612369324621460120984797
:104C10000828F0D0072806D12846316CFFF7E6FFB8
:104C2000301DFBF7F5FAFFDE2DE9F0470D1DD0F83A
:104C30000C80D0F81890074614460FCDADF5727D64
:104C40000DF10C0CACE80F000FCDACE80F000FCD50
:104C5000ACE80F0095E80F0002AE4FF0000E8CE8B4
:104C60000F00C6F800E020E0336C7B614FF4F07277
:104C700031467AA801F001FE3B697AAA39465046CE
:104C80009847889B73642146CDE9006905463B46F9
:104C90003A460120C047044618BB4FF4F0727AA987
:104CA000304601F0EAFD082D19D1316C3846FFF786
:104CB00021FF09345FFA84FA05460028D4D0B36B8B
:104CC00073643A46CDE900693B464AF01001012081
:104CD000C04730B928460DF5727DBDE8F087072D35
:104CE00005D0092528460DF5727DBDE8F0872046E0
:104CF000316CFFF77BFF03A8FBF78AFAF0B5CB6BAB
:104D00000B6401F1040C0E460546BCE80F00F9B037
:104D100001AC0FC4BCE80F000FC4BCE80F000FC407
:104D20009CE80F004FF0FF3784E80F00009706E083
:104D30002B696A46294698470828044608D11099E5
:104D40002846FFF7D7FE0028F2D0092079B0F0BD41
:104D50006846FFF719FF062CF7D131462846FFF7C2
:104D600047FF00BFC160D96B8261196400221946F8
:104D7000FFF75ABF70B5C66843690B64AEB90369E3
:104D80000A4604460D46014602209847072805D0EA
:104D900008280ED129462046FFF72AFF3046296C05
:104DA000FFF724FF281DFBF733FA0122FFF73CFF32
:104DB000FFDEFFDEC26822B1CA6B0A640022FFF781
:104DC00033BFFFF79BBF00BF012910D009D883B9BB
:104DD0000F2A0ED800EB820218465368009A13601F
:104DE0007047033901298CBF022001207047084613
:104DF00070470220704700BF00B585B00A46002307
:104E000003A900911946FFF7DFFF039805B05DF88D
:104E100004FB00BF012910D009D883B90F2A0ED88E
:104E2000009900EB82020968516018467047033907
:104E300001298CBF022001207047084670470220DC
:104E4000704700BF10B584B0002303AC03920094F8
:104E50000A461946FFF7DEFF04B010BD70B5D36BEC
:104E6000136402F1040C05460C46BCE80F00ADF5D6
:104E70000E7D0DF15C0EAEE80F00BCE80F00AEE851
:104E80000F00BCE80F00AEE80F009CE80F004FF0E9
:104E9000FF368EE80F00169610E0FFF7D3FF21468D
:104EA00016A8A847034616AA6946082083B9049B9A
:104EB0009847052806460CD0092809D02699684647
:104EC000FFF718FE03466A460C2116A8002BE4D013
:104ED000092616A8FFF758FE30460DF50E7D70BD69
:104EE0002DE9F04F9346CA6C89B00D4652F8041B69
:104EF000069200F0030C002B79D00C0C8DF81D40AD
:104F00000904E4B2059102EB840202212F6D8DF8B1
:104F10001C10BCF1020F08BFAA6B17F001070CD0E0
:104F200005A9584600F0A4FA18B9082009B0BDE850
:104F3000F08F092009B0BDE8F08F1668002EEFD081
:104F400000F008010191B246029764469946B9F112
:104F5000020F48D0B2F800A0568802F10408AA6CEB
:104F600026F001030F2158469F18FFF745FF87429F
:104F700037D82AF001023A44824294BF002201222B
:104F8000730003F002030AF0010A43EA0A03012B4B
:104F900047D0022B31D0002BCBD114B1002A40F0E6
:104FA000C98008F10402D2F800A0BAF1000FCED1F6
:104FB00005A95846029F00F05BFA0028B9D1002FDE
:104FC000B3D00F215846FFF717FF0E21024658466F
:104FD000FFF738FF674A0F215846FFF733FF0720D6
:104FE000A8E70022CCE7566802F10808B7E70902F3
:104FF00005918DF81D30032188E7D8F8006026F070
:105000000043002C44D122B1019A002A5AD0002B2F
:1050100058D0002E01DA08F10408013308EB8302AE
:10502000C1E7ECB9CAB1D8F80430D8F80020991C0F
:105030004FEAD2723FF47DAF05F15801013304917C
:1050400000F08B8008F10400FFF7CAFD04AB0146B5
:105050002846AFF30080002857D108F10802A2E7E4
:105060000D215846FFF7C8FE2B6A8342F5D1AB6A83
:105070009845F2D14046FFF7EDFC0F210246584615
:10508000FFF7E0FE2A4600215846FFF7DBFEA6E7C1
:105090000D2158460393FFF7AFFE2A6A039B824215
:1050A000B7D1AA6A9045B4D100270422C5E90B7292
:1050B0004244AB626A63D8F80020BA4255DB012251
:1050C0000292AAE7039408F1040A002605F15807A2
:1050D0001C460DE050460497FFF782FD0022014672
:1050E00004AB284601360AF1040AAFF30080E0B9A8
:1050F000A642EFD10D215846FFF77EFE049BC5F86E
:105100002880C5E90803062014E704460D21584607
:10511000FFF772FE049E2862022C04BFEE6205F1C6
:105120002C06C5E90968062004E72346D8F8006084
:10513000039C6EE74046FFF78DFC08F1040204462D
:10514000AA632846AFF3008000283FF4F2AE22465F
:105150000F215846FFF776FE41E70C4658460D21D1
:10516000FFF74AFE26462862DBE7581C08EB800062
:1051700081E700BF000000000023FFF7B1BE00BFC1
:105180000123FFF7ADBE00BF0223FFF7A9BE00BF9A
:105190002DE9F0430646C3B015461C46042900F22B
:1051A000D180DFE801F0AC51CF2A0300002C40F0A1
:1051B000C980102A00F2C6800368DC0600F1E7808F
:1051C00020AF3846FBF796F8B46B394600234FF012
:1051D000010C0CFA03F22A42204603F1010303D02A
:1051E00050F8042B0A600446042B01F10401F0D1AD
:1051F000B4633846FBF774F899E0032C40F0A280C2
:1052000094B204EB1243102B4FEA124500F29A803D
:1052100003681F0700F1C38020AF3846FBF73EF854
:10522000B26B07EBC50154B10B46D01A01EBC401B8
:10523000E4001D5843F8045B8B42FAD12244B26368
:105240003846FBF709F872E0012C4FEA124895B294
:1052500071D0052C76D108EB0509B9F1200F71D872
:10526000B8F10F0F72D8B9F1100F036800F29F80E8
:10527000D90708D523F00103304643F0020340F874
:10528000483BFAF7DDFF20AF3846FAF7D9FFB36B9A
:10529000002D00F0B9806D006A1E07EBC8010025E3
:1052A0000132043903EB820253F8040B41F8040F76
:1052B0009342F9D1002D00F0A1804146102938BF5A
:1052C00010216B0010396F46013B07EBC101013320
:1052D000043902EB830352F8040B41F8040F9A429D
:1052E000F9D1012C00F08880B8F10F0FB26302D819
:1052F00020A8FAF7A1FF3846FAF7A6FF17E00CBB83
:10530000806B23461FFA82FC0124371D04FA03F147
:1053100011EA0C0F024604D052F8041B47F8231080
:1053200010460133102BF1D1AC0400D4B06300203F
:1053300043B0BDE8F08308EB0503102B02D8B8F1A9
:10534000100F14D1022043B0BDE8F083002DEED041
:1053500003685A075CD46F463846FAF779FFB26B98
:105360006B00A8F11001013B07EBC101AFE7036837
:10537000DA0759D420AF3846FAF75AFFB36B002D3D
:1053800089D10433B3633846FAF74EFFCFE723F0F1
:105390001003036000F5E870FAF7ACFF10E723F0A4
:1053A0000803036000F5A870FAF778FF34E7D9071F
:1053B00008D523F0010343F0020340F8483BFAF715
:1053C0003FFF3368580706D5304623F0040340F802
:1053D000D03BFAF73DFF20AF3846FAF731FF684679
:1053E000FAF736FFC8F110025200B36BA9F11005AD
:1053F000013A07EBC80153E720AFC2E7012CC0D048
:10540000B8F10F0FB36392D83846FAF715FF8EE75D
:1054100023F0040340F8D03B6F46FAF719FF3846F3
:10542000FAF716FFB26B9BE7304623F0030340F810
:10543000483BFAF7FDFE9DE7027A03467AB9427AC5
:10544000A2B14168013A10B44272086803220C1DEF
:105450001A7202025C60000E10BC1A60704700688D
:10546000013A1A7202021A60000E7047B0207047AB
:105470002DE9F043064685B00D464FF0000828465A
:10548000FFF7DAFFB028044600F0DA80070646D5B9
:1054900000F0F003802B5ED0B02B73D01BD8902B84
:1054A00000F09B80A02B12D1C34303F007034FF4FD
:1054B0007F621A41010702F47F6201D542F4804203
:1054C000002319463046FFF763FE0028D7D0092095
:1054D00005B0BDE8F083C02B6DD1C62800F09380E5
:1054E000C72800F0B28000F0F803C02B00F0D28093
:1054F000C82800F0DD80C928E9D12846FFF79CFFC5
:10550000020300F00F0002F4702201300243012177
:1055100005233046FFF73CFE0028B0D0D7E78300D4
:10552000DBB21F1D0DF10C0900231946CDF80090C8
:105530000D223046FFF748FC039BCDF80090600633
:105540004CBFDF1BFF1800230D221946304603977E
:10555000FFF760FC93E72846FFF76EFF2402204325
:10556000B0F5004FB3D004010023A2B21946304673
:10557000FFF70EFE0028AAD114F4004F18BF4FF019
:1055800001087CE7B12851D0B22800F0AD80B328E3
:105590006DD000F0FC03B42B99D000F0070201326B
:1055A000012342F4002219463046FFF7F1FD00289E
:1055B0003FF465AF8BE700F0F803D02B87D100F004
:1055C00007020132052342F4002201213046FFF791
:1055D000DFFD00283FF453AF79E700F00D030D2BFA
:1055E0003FF475AF03AF002300F00F021946009798
:1055F0003046FFF7E9FB002300970D22194630469D
:10560000FFF708FC3BE72846FFF716FF020300F010
:105610000F00013002F47022032302431946304682
:10562000FFF7B6FD00283FF42AAF50E72846FFF702
:1056300003FF431EDBB20E2B02467FF641AF46E767
:10564000B8F1000F40D0002042E72846FFF7F4FEF3
:10565000431EDBB20E2B02463FF639AF0023042176
:105660003046FFF795FD00283FF409AF2FE72846A5
:10567000FFF7E2FE020300F00F00013002F4702297
:105680000123024319463046FFF782FD00283FF40C
:10569000F6AE1CE700F00F020132032342F4202291
:1056A00019463046FFF774FD00283FF4E8AE0EE7D8
:1056B0002846FFF7C1FE00F0F00200F00F031032A1
:1056C000013343EA023222E703AC434641460E224D
:1056D00000943046FFF778FB009443460F22414682
:1056E0003046FFF797FBAEE700230DF10C090D22C2
:1056F0001946CDF800903046FFF766FB2846FFF7C5
:105700009BFE0206039C4FF002070BD500F07F00C2
:10571000B840044428460394FFF78EFE030607F1C1
:105720000707F3D400FA07F204F5017422440023BA
:105730000392CDF800900D2219463046FFF76AFB20
:105740009DE600BF0A4B10B50446186818B1036AFD
:105750000BB900F055FF132C07D8064850F8342039
:10576000013202D000EBC40010BD0020FCE700BFF6
:10577000240000202C070020F8B5044601F050F862
:1057800013260546002730463946ABBE06462E6036
:105790002046F8BD431C01D1FFF7EEBF704730B57E
:1057A00085B0CDE901010392062401AD20462946CA
:1057B000ABBE04462046FFF7EDFF05B030BD70B527
:1057C0000E461446FFF7BEFF054630B901F028F833
:1057D000092303604FF0FF3070BD00682246314658
:1057E000FFF7DDFF431CF5D06B68201A03446B60A4
:1057F000F2E7F7B50C461646FFF7A4FF054640B999
:1058000001F00EF8092303604FF0FF34204603B087
:10581000F0BD022E03D901F003F81623F3E7012EA1
:1058200012D14368E418F6D42B680A26CDE9003477
:105830006F4630463946ABBE06463046FFF7AAFFF4
:105840000028E1DB6C60E1E7022E0368ECD10093F5
:105850000C266F4630463946ABBE06463046FFF74B
:1058600099FF431CD0D00444DEE7FFF7C2BF30B538
:1058700085B0CDE901010392052401AD20462946FA
:10588000ABBE04462046FFF785FF05B030BD70B5BE
:105890000E461546FFF756FF044630B900F0C0FF2C
:1058A000092303604FF0FF3070BD00682A4631467F
:1058B000FFF7DDFF031EF5DB6268E81A0244AB4226
:1058C0006260F1D1BDE870400020FFF755BF37B5E9
:1058D0000224019001AD20462946ABBE0446204675
:1058E000FFF758FF03B030BD38B50546FFF72AFF74
:1058F000044630B900F094FF092303604FF0FF30F5
:1059000038BD013D012D09D8074B9A681B699A42A1
:1059100004D14FF0FF3323600020F1E72068FFF748
:10592000D6FF0028F5D0EBE72C07002001207047B8
:105930000D4A116810B5034609B90C491160106889
:10594000694603448B4206D809490A4C0968A142BA
:1059500008D08B4206D900F063FF0C2303604FF0A0
:10596000FF3010BD1360FCE7280700201809002055
:105970000C000020ADDEFECA70B50C46FFF7E2FE5B
:10598000054630B900F04CFF092303604FF0FF30AB
:1059900070BD636843F4005363604FF48063A36495
:1059A0000C2630462946ABBE05462846FFF7F2FED8
:1059B000431CEBD020610020EAE70B4610B5002124
:1059C00004465822184600F094FE01462046BDE8E1
:1059D0001040FFF7D1BF38B50D46044658220021CC
:1059E000284600F086FE2046002100F011F8431CF6
:1059F00004460BD06B6843F401436B602946FFF704
:105A0000BBFF05462046FFF76FFF2C46204638BDFA
:105A10002DE9F047294F96B082460E46002457F8EC
:105A2000343001334FEAC4080CD00134142CF6D1C1
:105A300000F0F6FE182303604FF0FF34204616B046
:105A4000BDE8F08706F42063B3F5206FE94609D17D
:105A500049465046FFF7BFFF013003D000F0E0FE9B
:105A60001123E8E7C6F3004540F20163B20748BFDF
:105A700045F002051E4218BF45F00405330748BF34
:105A800025F00405504648BF45F00805CDF800A0B4
:105A9000FAF7E6FCCDE90150012528464946ABBEA0
:105AA0000546002D05DB47F83450474400237B6052
:105AB000C4E72846FFF760FE0446BFE72C07002036
:105AC0002DE9F74306460F46294800211546FFF702
:105AD0009FFF2A4604460021304600F00AFE631C60
